:020000040800F2
:10000000506F01208D040008B16801089943010870
:1000100051670108092A0008691C02080000000055
:10002000000000000000000000000000A1A1010885
:10003000E94D0008000000004171010819A3010802
:10004000A7040008A7040008A7040008A7040008E4
:10005000A7040008A7040008A7040008A7040008D4
:10006000A7040008A7040008A7040008193F000817
:10007000293F0008393F0008493F0008593F000860
:10008000693F0008793F0008A7040008514E0008A6
:1000900029500008614E000839500008A7040008E4
:1000A000A7040008A7040008A7040008A704000884
:1000B00071A50108A7040008A7040008A704000808
:1000C000A7040008A7040008A7040008A704000864
:1000D000A99F0108F9CB010809CC010819CC010836
:1000E000A7040008A704000800000000A7040008F7
:1000F000A7040008A7040008A7040008893F000817
:10010000A7040008A7040008A7040008A704000823
:10011000A704000851AF0108A7040008A7040008BD
:10012000993F0008A93F0008B93F0008C93F0008EF
:10013000D93F0008A7040008A7040008A704000886
:1001400000000000000000000000000000000000AF
:10015000E93F0008F93F0008A7040008A7040008C9
:10016000A7040008A7040008A7040008A7040008C3
:10017000A704000829690108A7040008000000007E
:10018000A7040008A7040008B1B80108A7040008E4
:10019000A7040008A7040008A7040008A704000893
:1001A000A7040008A7040008A70400080000000036
:1001B000A7040008A7040008A7040008A704000873
:1001C000A7040008A70400080000000000000000C9
:1001D0000000000000000000A7040008000000006C
:1001E000000000000000000000000000000000000F
:1001F0000000000000000000A7040008A704000899
:10020000A7040008A704000800000000A7040008D5
:10021000A7040008A7040008A7040008A704000812
:10022000A704000800000000A70400080000000068
:10023000A7040008A704000800000000A7040008A5
:10024000A7040008F9200008A7040008A704000874
:10025000A7040008A7040008A7040008A7040008D2
:10026000A7040008A7040008A7040008A7040008C2
:10027000A7040008A7040008A70400080000000065
:10028000A7040008A7040008A7040008A7040008A2
:1002900000000000A7040008A704000800000000F8
:1002A00000000000A7040008A7040008A704000835
:1002B000E9CB0108A7040008A704000819520008A8
:1002C00029520008A7040008A704000800F002F85B
:1002D00000F0CCF814A696E8000CB244B344DA451A
:1002E00001D100F0C3F8BAE80F000FA696E830007D
:1002F000A5EB040504EB0607AAEB0704A7F1010729
:100300004FEA15154FEA3414A4F10104AC4201D3AD
:1003100000F0ACF813F0010F18BFFB1A43F0010313
:1003200000F001F8DBE71847E0F8020020F90200CE
:100330000A444FF0000C10F8013B13F0070408BF0B
:1003400010F8014B1D1108BF10F8015B641E05D0A9
:1003500010F8016B641E01F8016BF9D113F0080F5E
:100360001EBF10F8014BAD1C0C1B09D16D1E58BFF0
:1003700001F801CBFAD505E014F8016B01F8016B27
:100380006D1EF9D59142D6D370470000704700002A
:100390000023002400250026103A28BF78C1FBD88E
:1003A000520728BF30C148BF0B6070476E2900F06C
:1003B0008D83702900F0D18466292EF0B8876529D5
:1003C0002EF0B58767292EF0B28761292EF0B1870C
:1003D00003681B0A28BF41F08001692900F03A83B5
:1003E000642900F03783752900F034836F2900F009
:1003F0005F84782900F09D84E92900F0F983E429DD
:1004000000F0F683F52900F0F383EF2900F05C8417
:10041000F82900F09C840368DB0928BF41F08001C3
:10042000632901F0BF81732901F0C481E32901F040
:10043000CF81F32901F0D481002070471FB52EF041
:1004400069FF9DE8030000F03BFA01F027FA040081
:10045000002000212EF048FF401C60600020002199
:100460002EF02CFFE0601FBD10B510BD01F0E8F9C3
:100470001146FFF7E3FF29F02BFD01F0C5FA03B4A5
:10048000FFF7F2FF03BC01F0F5FA000009488047CE
:1004900009480047FEE7FEE7FEE7FEE7FEE7FEE766
:1004A000FEE7FEE7FEE7FEE704480549054A064B7E
:1004B0007047000031A40108CD020008484F000039
:1004C000506F0120486F0000502F012070B5064684
:1004D00000F0DAF9056806F10B0020F00704B442D9
:1004E0009CBF002070BD2B466A68BAB11068A0425C
:1004F00010D304F1080188423CBF5068586007D30C
:100500005168101941601168091B0160586014603E
:10051000101D70BD13465268002AE7D121462846B7
:1005200000F0BAF90028DED170BD53EA020C00F0E9
:1005300069802DE9F04B4FF00006002B1FBFB3FA86
:1005400083F503FA05F424FA05F65E4012BF16435C
:10055000B2FA82F502FA05F4C5F120051EBF22FAAF
:1005600005FC44EA0C04203556EA044C4FEA1444D6
:1005700018BF641C4FF000084FF00009904271EB67
:10058000030C39D3002919BFB1FA81F701FA07F634
:10059000B0FA80F700FA07F6C7F120071EBF20FA6D
:1005A00007FC46EA0C062037B6FBF4FCA7EB050770
:1005B000103F07F01F0BCBF120062CFA06F60CFAC1
:1005C0000BFB44BFB3460026202FA4BF5E464FF06E
:1005D000000B5BEA060C08BF4FF0010B19EB0B098F
:1005E00048EB0608ABFB027C06FB02CC0BFB03CC02
:1005F000C01B71EB0C01C1E70B4602464146484661
:10060000BDE8F08B13B5084318BF4FF0FF3001462B
:10061000AFF30080BDE81C40704700000FB41CB56C
:100620000C0007AA009007D04142A14202D3204407
:10063000401E01E04FF0FF30074B7B4469460190BC
:10064000069800F05CFA0021002C01D0009A11708D
:100650001CBC5DF814FB0000E704000040EA010345
:1006600010B59B070FD1042A0DD310C808C9121F5B
:100670009C42F8D020BA19BA884201D9012010BD95
:100680004FF0FF3010BD1AB1D30703D0521C07E062
:10069000002010BD10F8013B11F8014B1B1B07D1C6
:1006A00010F8013B11F8014B1B1B01D1921EF1D137
:1006B000184610BD10B5431C02E010F8011B71B1C3
:1006C0008107FAD14FF0013202C88C1A8C4314EA28
:1006D000C211F9D0C01A0A0603D0C01E10BDC01A3C
:1006E00010BD0A0401D0801E10BD0902FCD0401EBE
:1006F00010BD032A40F2308010F0030C00F015808A
:1007000011F8013BBCF1020F624498BF11F801CB14
:1007100000F8013B38BF11F8013BA2F1040298BF79
:1007200000F801CB38BF00F8013B11F0030300F0E3
:100730002580083AC0F0088051F8043B083A51F887
:1007400004CBA0E80810F5E7121D5CBF51F8043B8C
:1007500040F8043BAFF30080D20724BF11F8013BFF
:1007600011F801CB48BF11F8012B24BF00F8013B61
:1007700000F801CB48BF00F8012B704710B5203AB4
:10078000C0F00B80B1E81850A0E81850B1E818503C
:10079000A0E81850203ABFF4F5AF5FEA027C24BF0E
:1007A000B1E81850A0E8185044BF18C918C0BDE8F7
:1007B00010405FEA827C24BF51F8043B40F8043BC0
:1007C00008BF7047D20728BF31F8023B48BF11F875
:1007D000012B28BF20F8023B48BF00F8012B7047CF
:1007E00002F0FF0343EA032242EA024200F024B887
:1007F0004FF000020429C0F0128010F0030C00F04A
:100800001B80CCF1040CBCF1020F18BF00F8012BC7
:10081000A8BF20F8022BA1EB0C0100F00DB85FEA95
:10082000C17C24BF00F8012B00F8012B48BF00F861
:10083000012B70474FF0000200B5134694469646D0
:10084000203922BFA0E80C50A0E80C50B1F12001E3
:10085000BFF4F7AF090728BFA0E80C5048BF0CC091
:100860005DF804EB890028BF40F8042B08BF7047EF
:1008700048BF20F8022B11F0804F18BF00F8012B61
:10088000704770477047704700487047F804002071
:10089000704770477047704738B504460A460020D5
:1008A0006946AFF30080002808BF38BD02460099B2
:1008B000204600F029FB012038BD012000F0B8BF20
:1008C000F8B5AFF30080054600200C460C2000BFB1
:1008D0000646A819A0420DD9324669460020AFF35A
:1008E0000080070008BF00F0A3FF0098A04218BFD7
:1008F0000546C419FFF7C8FF05600746F01D20F044
:1009000007004619284600F00AF8B44208BFF8BDAF
:10091000A21B31463868BDE8F84000F0F5BA002166
:100920000160416070470C20704770B50446051F98
:10093000FFF7AAFF0068002C14BF446870BD002CAC
:1009400018BFAC423CBF20466468F8D301680A185F
:10095000AA4218BF456003D12A68054611440160C8
:1009600028684119A1421CBF6C6070BD6168696054
:1009700021680844286070BD10B500F0C1FA006815
:1009800010BD10B5044600F0BBFA046010BD70B590
:10099000044685690068C10601D5302600E020269E
:1009A000C00707D070BDD4E9012130469047206AC6
:1009B000401C20626D1EF6D570BD70B50446856979
:1009C0000078C00707D170BDD4E9012120209047ED
:1009D000206A401C20626D1EF6D570BD09684A056C
:1009E00001D540B27047C905FCD500B2704709680F
:1009F0004A0501D5C0B27047C905FCD580B2704721
:100A000070B50C460546012A05D02878800600D529
:100A1000EA69002302E0012305E05B1C934202D255
:100A2000E05C0028F9D1A869E618C01AA861286A14
:100A3000184428622846FFF7AAFF04E0D5E90121FF
:100A400014F8010B9047B442F8D32846FFF7B5FFDE
:100A500070BD00002DE9F04106460024106875299C
:100A6000314616A510D0FFF7B9FF002802DA404240
:100A700013A507E031688A0701D512A502E04907EE
:100A800004D511A5012401E0FFF7B1FF00210A22DE
:100A900006F1240709E0B0FBF2FCB0FBF2F302FB25
:100AA0001C00303078541846491C0028F3D12346E6
:100AB0002A463046BDE8F04100F085BA000000004B
:100AC0002D0000002B0000002000000011680268CB
:100AD000006A530501D508700AE0D30501D50880E6
:100AE00006E0130603D5C217C1E9000200E0086062
:100AF0000120704701694A1C02610878704700B5FF
:100B00008FB0CDE901310021059105497944CDE946
:100B100003101146684600F02BF90FB000BD00002D
:100B2000E5FFFFFFD1E900239A4202D2531C0B607C
:100B3000107070472DE9FF5F15468A460446DFF8BE
:100B4000AC80F8440027D8E900103E46CDE90010FB
:100B500010E03AF816106A4602A800F045FE411C63
:100B600007D02178890603D5E269391891420DD85A
:100B70000744761C2078800602D5E069B84205DD7E
:100B8000AE42E6DB3AF816000028E2D1A069C01BAD
:100B9000A0612046FFF7FBFED8E90010CDE9001068
:100BA000002017E03AF818106A4602A800F01CFE70
:100BB000B0F1FF3F81460BD000250DF1080B05E099
:100BC000D4E901211BF8050090476D1C4D45F7D372
:100BD00008F10100B0428046E4DB206A384420621C
:100BE0002046FFF7EAFEBDE8FF9F0000F2E70200A3
:100BF0002DE9F0418046D21D22F007020025D2E9FE
:100C00000002F52915A614D0011E72F1000106DAC2
:100C10000023D0EB030063EB020211A608E0D8F832
:100C200000108B0701D50FA602E0490701D50EA6DB
:100C300001251146002408F1240704E000F07EF9A4
:100C400030323A55641C50EA0102F7D12B46324645
:100C500021464046BDE8F04100F0B5B90000000073
:100C60002D0000002B0000002000000030B4002107
:100C700000F1240408E002F00705D208303542EA0A
:100C80004372DB086554491C52EA0305F3D104683A
:100C9000002310A2250708D504F020040C4304D03B
:100CA000C46901230CA2641EC46130BC00F08BB97E
:100CB00010B5044621461068FFF799FE024620460B
:100CC000BDE810400023D1E7D21D22F00701D1E991
:100CD0000023CBE70000000030000000F0B40D4618
:100CE0000188090502D5214C7C4402E01F4C7C445C
:100CF0000E34002100F1240608E002F00F0712096B
:100D0000E75D42EA03721B097754491C52EA030764
:100D1000F3D102780023120704D5702D06D009B153
:100D2000022311342246F0BC00F04DB901231034E7
:100D3000F8E770B504460D4621461068FFF757FEE8
:100D4000024629462046BDE870400023C6E7D21D72
:100D500022F00703D3E90023C0E70368126843F0D9
:100D6000200303600823C3610023B7E754E60200B1
:100D70002DE9F05F894604464FF0000ADFF874B1B0
:100D8000FB44C0F820A02046E1688847002874D0C2
:100D9000252806D0D4E901219047206A401C206212
:100DA000F1E700265F462046E1688847202805468F
:100DB00007DB312D05D2781910F8200C08B1064355
:100DC000F1E7B00701D526F00406C4F81CA00027FF
:100DD000C4F818A02A2D09D028462EF03DFA38B3C1
:100DE00004EB8708303DC8F8185019E059F8041B87
:100DF000204604EB87029161E1688847012F054690
:100E000018D1E069002820DA26F020061DE0D8F885
:100E1000180000EB800005EB40003038C8F81800DF
:100E20002046E168884705462EF016FA0028EED1E4
:100E3000012F0AD02E2D08D12046E16888477F1C5B
:100E40000546022F46F02006C4DBA069002803DA1D
:100E5000404246F00106A061F00701D026F01006DE
:100E60006C2D0BD0682D09D04C2D39D06A2D35D082
:100E7000742D35D07A2D33D016E038E0E1682F4656
:100E800020468847B842054609D16C2F26D04FF43A
:100E90008060E168064320468847054604E06C2FE1
:100EA0001AD04FF4807006430DB3A5F14100192804
:100EB00002D8203546F400664A4629462046266078
:100EC0004E46FFF773FA80B101280BD0F61D26F0CD
:100ED000070000F1080956E74020E4E78020D8E742
:100EE0000020D6E706F104094DE7284652E7206ABC
:100EF000BDE8F09FE4E5020000487047F0040020E0
:100F000000487047F0040020034640688C460028E3
:100F100018BF88423CBF03464068F8D3186818449D
:100F2000884207D00CF1030020F00700001D411A91
:100F3000521A0146081D0A60FFF7F7BC30B5B0F140
:100F40000A0271F100034FEA900E4EEA817EB0EB87
:100F50000E0061EB91014FEA101E4EEA017E10EB8C
:100F60000E0041EB11114FEA102E4EEA016E10EB0C
:100F70000E0041EB11214FEA104E4EEA014E10EBEC
:100F80000E0041EB1141401841F100014FEAD00041
:100F900040EA41704FEAD1014FEA810444EA90747B
:100FA00010EB800544EB01046D1944EB0404521B63
:100FB000A3414FF0000348BF0A3200D530BD401CAA
:100FC00041F1000130BD2DE9F0470D4699469246AA
:100FD000044600F124080168880604D5E06921F080
:100FE0001001216000E00120A84201DD471B00E064
:100FF0000027A1697A1902EB0900081AA06120787C
:10100000C00602D42046FFF7C2FC002608E0D4E95F
:1010100001211AF806009047206A401C761C2062C5
:101020004E45F4DB2078C0060AD52046FFF7AFFC1A
:1010300006E0D4E9012130209047206A401C20625C
:10104000381EA7F10107F4DC07E0D4E9012118F804
:1010500005009047206A401C2062281EA5F101056A
:10106000F3DC2046FFF7A9FC2078000602D5022019
:10107000BDE8F0870120FBE72DE9FF4F0C461E4637
:101080004FF0FF378BB0D2E90001DDF860800A90A5
:101090008A46C1F30A5505B93D46002108464FF07E
:1010A0000000BAF1000F00F4400005DA00EB800008
:1010B0004FF4400101EA50004FEA9059B9F1010F95
:1010C00000DDB9460A9850EA4A000ED044F61050A6
:1010D000A5F2FF3545432F14B8F1000F1ED075421D
:1010E000291E1EDDC9F100021CE0B8F1010F4FF00E
:1010F000000001D0302103E0F24305E02154401C00
:10110000B042FBDB30460022002121540B99C1F88C
:101110000880C1E900200FB0BDE8F08FBD1B6D1C39
:10112000DEE74A4600DA694206A800F0FBFB06ABA0
:1011300093E8070003AB83E8070050460A992CF0B8
:10114000B7FC8DE80700A0F500501F380090039809
:10115000002D0ADD42F21F014A460844002303A97C
:10116000039068462CF020FF09E0A0F500504A46A5
:101170001F38002303A9039068462CF02AFF8DE84E
:1011800007000004000C03D04FF0FF30410800E0DE
:101190001046B8F1000F03D00022009215461EE061
:1011A000751E05D4FFF7CAFE303262556D1EF9D5A3
:1011B000B3460122084302D000227F1C04E02078BD
:1011C000302801D100227F1E002A099784D01DE01B
:1011D000112D07DAFFF7B2FE303262556D1C50EA6E
:1011E0000102F5D1084302D00098C8B10EE00021F9
:1011F000681E05E0235C625C63542254401E491C57
:101200008142F7DBAB46A81B401E0990002004F882
:101210000B000B98099AC0F80880C0E9002B7AE708
:1012200011264FF0000857E72DE9F04F8846044695
:10123000D21D22F0070191B0D1E90001CDE90A01E8
:101240002CF0FEFF02460B98C00F01D02D2007E0C6
:101250002068810701D52B2002E0202101EAC0008F
:10126000032A099001D0072A05DB034641462046A0
:1012700000F018FB0BE12078800601D5E06900E062
:101280000620B8F1650F814606D0B8F1660F18D078
:10129000B8F1670F70D131E00020B9F1110F009063
:1012A00001DB112301E009F101030AAA01A90CA83D
:1012B000FFF7E2FEDDE90C70002609F10105834627
:1012C00047E001204B4600904FF000470AAA01A9D1
:1012D0000CA8FFF7D1FEDDE90DB00C995D460026A4
:1012E00010B909F101000D18B9EB050003D4C0F1E4
:1012F000FF3609F10105A5EB09002BE0B9F1010F5B
:1013000001DA4FF001090020B9F1110F00904846B1
:1013100001DD112300E003460AAA01A90CA8FFF78A
:10132000ABFEDDE90C704D460026834620780007B1
:101330000AD4AB4500DA5D4601A8012D04DD411950
:1013400011F8011C302907D04F4502DA17F1040FBC
:1013500004DA012082460FE06D1EEEE7002F02DC6A
:10136000ED1B3E4403E0781CA84200DD7D1CB81B49
:1013700000F1010A4FF000472078000703D4AA4586
:1013800001DB4FF0FF3A0021B7F1004F0DF14308A8
:101390008DF8431024D002202B23002F01DA7F4246
:1013A0002D230A21021EA0F1010000DC5FB197FB92
:1013B000F1FC97FBF1F201FB1C7C17460CF1300CA1
:1013C00008F801CDEEE7A8F10100037021880905B6
:1013D00001D5452100E06521A0F1010800F8011CBC
:1013E00009980FA9A1EB0807FF1D00B101204119C1
:1013F00001EBEA70A1693844081A401EA061207808
:10140000C00602D42046FFF7C2FA099828B1D4E9F1
:1014100001219047206A401C20622078C00622D516
:101420002046FFF7B4FA1EE0002E04DBB34502DDD0
:1014300001A8805D00E03020D4E901219047206AB6
:10144000401C2062761CAAF101005FEA000A0AD162
:1014500000F024FAC0680168405CD4E9012190479B
:10146000206A401C2062281EA5F10105DCDC07E093
:10147000D4E9012118F8010B9047206A401C206232
:10148000381EA7F10107F3DC2046FFF796FA032088
:1014900011B041E62DE9F04F04460D46D21D22F071
:1014A000070089B0D0E90097484639462CF0C8FEBD
:1014B0000246F80F01D02D2307E02068810701D5EF
:1014C0002B2302E0202101EAC0038DF820300BB16C
:1014D000012000E00020032A824601D0072A04DB15
:1014E0002946204600F0DEF93FE12078800601D44D
:1014F0000D2500E0E569C7F30A560D2D49DA0021F4
:101500004FEA175B08464FF00000002F00F4400040
:1015100007DA00EB80004FF4400100EBD07001EAE5
:1015200060008115012901DD4FF0FF3100224FEAF3
:10153000850CBCF1180F06D31346ACF118004FF020
:101540008052C24003E04FF4801323FA0CF30CF1F5
:101550000C0CBCF1200F04D3ACF1200C09FA0CF0F8
:1015600001E007FA0CF000294FF0004801DD18B93E
:101570000FE00ED140450CD319EB02095F4121B9B0
:10158000404502D19F4329EA0209BBEB175F00D017
:10159000761C2088000502D57B48784402E07A4812
:1015A0007844193808AA302302F80A30037C0AF17B
:1015B0000101002E0AF1020A53546A4602DC4FF080
:1015C000300101E04FF031014FF001088DF80010BB
:1015D00002D0A6F2FF3603E059EA470100D06B4E75
:1015E000002D02DC2178090704D54FF002082E21D6
:1015F0008DF80110C44600210BE0C7F303433F01FF
:10160000C35C491C6D1E02F80830052908F1010869
:1016100001DA002DF1DC00210CE000EB1973491C0C
:101620001B786D1E082902F808304FEA091908F1E5
:10163000010801DA002DF0DC21688B0602D516E0E6
:10164000A8F10108E04505DD02EB080313F8013CB1
:10165000302BF5D0B8F1000F09DD02EB080313F8C9
:10166000013C2E2B03D1090701D4A8F10108002D5C
:1016700005DD3E2102F808106D1E08F10108407CCE
:10168000002E02F8080008F1010804DA2D20764245
:1016900002F8080002E02B2002F808000A214FF4AB
:1016A0007A70864208F101080BDB96FBF0F33033C9
:1016B00002F8083096FBF0F308F1010800FB13660E
:1016C00001E0642E0CDB642096FBF0F3303302F86B
:1016D000083096FBF0F308F1010800FB136601E007
:1016E0000A2E06DB96FBF1F0303002F8080008F114
:1016F000010896FBF1F001FB1060303002F80800A1
:10170000A16908F1010808EB050202EB0A00081ABA
:10171000A0612078C00602D42046FFF738F9216A7C
:1017200008AE01EB0A00206204E0D4E9012116F8BA
:10173000010B9047BAF1010AF7D22078C00602D512
:101740002046FFF724F96E4609E016F8010B3E2803
:101750000FD0D4E901219047206A401C2062B8F1E3
:101760000108F2D22046FFF728F909B00320BDE8AE
:10177000F08F206A2844206203E0D4E90121302060
:1017800090476D1EEBD3F8E73DDF020002FCFFFF40
:1017900010B5436913B1AFF3008001E0FFF730F9F2
:1017A000012010BD127800F124010A7000224A7055
:1017B0000122EDE711684FF0FF32E9E710B5436908
:1017C00013B1AFF3008001E0FFF7B4F9012010BDC1
:1017D000128800F1240182840022C2840122EDE7F4
:1017E00011684FF0FF32E9E72DE9F04116460C464B
:1017F000054600F04BF8036893F80101012807D073
:10180000FF2C12D8185D80B101202C70BDE8F0814A
:10181000D3F807013246214603F20713C7182846BA
:10182000BC46BDE8F041002360474FF0FF30EDE7D4
:1018300010B500F0F7F8BDE8104000F0EEB87047C2
:101840007546FFF759FBAE4605006946534620F042
:101850000700854618B020B5FEF726FEBDE82040FB
:101860004FF000064FF000074FF000084FF0000B5C
:10187000AC46ACE8C009ACE8C009ACE8C009ACE8CB
:10188000C00921F007018D467047000010B500F037
:1018900005F8001D10BD00BF51DA02000048704776
:1018A000100500202DE9F0411F460446032601687B
:1018B000072A01F4006004DB08B116A505E016A5AF
:1018C00003E008B115A500E015A521F01000206087
:1018D000A069C01EA0610FB1401EA0612046FFF7A5
:1018E00056F84FB1D4E9012138469047206A401C90
:1018F0002062C01C206206E0206AFAE7D4E90121D8
:1019000015F8010B9047761EF8D22046FFF755F8E0
:10191000BDE8F0814E414E006E616E00494E4600BA
:10192000696E66002DE9F047814616468AB0354853
:1019300078440DC88DE80D0032487844801C03AC13
:101940000DC884E80D0041F69B300844372190FB18
:10195000F1F290FBF1F5A5F1800501FB12041B3CAF
:1019600002D56442012000E00020DFF898A0804604
:101970000027FA44AAF1BE0A0EE0E0070AD0324678
:10198000684607EB470101230AEB81012CF021FB9C
:101990008DE8070064107F1C002CEED1194F7F44A6
:1019A000AE3F19E0E80715D007EB04100DF1180A57
:1019B00090E80E008AE80E00C068F04201D1981944
:1019C00008903246012306A903A82CF002FB03ABC2
:1019D00083E807006D10641C002DE3D14FF0010374
:1019E00032466946B8F1000F03A802D02CF0DCFAA9
:1019F00001E02CF0EEFAC9E90001C9F808200AB0AC
:101A0000BDE8F08738DC020010B50446AFF3008073
:101A10002046BDE81040FEF732BD002801D000F09E
:101A200029B8704710B5012805D0002103A000F0A7
:101A300027F8012010BD09A1F8E7000053494752DB
:101A4000544D454D3A204F7574206F66206865618E
:101A500070206D656D6F7279000000003A20486556
:101A60006170206D656D6F727920636F7272757031
:101A70007465640001491820ABBEFEE72600020031
:101A800070B505460C460A2000E06D1C00F052F8C7
:101A900035B128780028F8D102E0641C00F04AF83B
:101AA00014B120780028F8D1BDE870400A2000F079
:101AB00041B800000000000030B44FF0013C50F885
:101AC000042BCCFA52F451F8043BD51A20D1FCB9BE
:101AD00050F8042BCCFA52F451F8043BD51A17D124
:101AE000B4B950F8042BCCFA52F451F8043BD51A8F
:101AF0000ED16CB950F8042BCCFA52F451F8043BD7
:101B0000D51A05D1002CDAD030BC4FF00000704758
:101B100029BAB1FA81F111F01801D1F12000844005
:101B2000F2D1CA40CB4012F0FF0213F0FF0330BCE9
:101B3000D01A704708B569468DF800000320ABBE87
:101B400008BD00000000000080B584B00390039839
:101B5000006842F20001C4F20201884209D0FFE7A6
:101B60000398006842F20011C4F20201884209D1D0
:101B7000FFE742F20830C4F20200006810F4403F70
:101B800009D129E046F20830C5F60200006810F4D9
:101B9000403F21D0FFE70EF08FFB02900398406892
:101BA0000190B0F5803F0AD0FFE70198B0F5003F03
:101BB00005D0FFE70198B0F5403F07D00AE0039851
:101BC000C1880298B0FBF1F0029004E0029880080E
:101BD000029000E0FFE75FE04FF4002000210CF0EE
:101BE00077FB0290039840680090B0F5802F32D0C8
:101BF000FFE70098B0F5002F2DD0FFE70098B0F573
:101C0000402F28D0FFE70098B0F5801F23D0FFE7D2
:101C10000098B0F5A01F1ED0FFE70098B0F5C01FD8
:101C200019D0FFE70098B0F5E01F1FD0FFE700983C
:101C3000B0F5001F1ED0FFE70098B0F5101F1DD0B3
:101C4000FFE70098B0F5201F1CD0FFE70098B0F523
:101C5000301F1BD01EE0039841686FF0010000EABE
:101C600051410298B0FBF1F0029014E00298000993
:101C7000029010E00298400902900CE0029880095E
:101C8000029008E00298C009029004E00298000A5D
:101C9000029000E0FFE7FFE70298400802900298F8
:101CA00045F61061C0F25F01884209D8FFE703984A
:101CB0000068806820F440700399096888602EE00D
:101CC00002984BF62041C0F2BE0188420AD8FFE7D5
:101CD000039800688068012161F30920039909686D
:101CE00088601BE0029847F64001C0F27D118842EF
:101CF0000AD8FFE7039800688068022161F3092091
:101D000003990968886008E003980068806840F4D7
:101D10004070039909688860FFE7FFE7FFE704B0B8
:101D200080BD00000000000080B582B001900198E5
:101D3000806B00900098006E10F0500F4AD1FFE7C2
:101D40000099086E40F4007008660098006800680A
:101D50000007002821D5FFE70098006813F048FB32
:101D6000D0B1FFE700980068C0688004002812D452
:101D7000FFE70099086E20F4807008660098006EF6
:101D8000C004002806D4FFE70099086E40F0010067
:101D90000866FFE7FFE7FFE718E000980068C06803
:101DA000800790B9FFE70099086E20F480700866FC
:101DB0000098006EC004002806D4FFE70099086E62
:101DC00040F001000866FFE7FFE7FFE7009804F036
:101DD000BFFC10E00098006EC006002804D5FFE7A5
:101DE000009804F0BDFC05E00098806DC16C01987E
:101DF0008847FFE7FFE702B080BD00000000000059
:101E000080B582B001900198806B00900099086EB7
:101E100040F0400008660099486E40F004004866B3
:101E2000009804F09DFC02B080BD0000000000009E
:101E300080B582B001900198806B0090009804F00A
:101E40008BFC02B080BD000080B584B00290029887
:101E5000006813F09DFA00900298006813F0A0FA51
:101E600000284BD0FFE70098002847D1FFE70298F1
:101E70000068806800F00D00012809D1FFE7029892
:101E8000006813F005FA02980168032008600DE06D
:101E90000299086E40F0100008660299486E40F002
:101EA0000100486601208DF80F002BE00AF0E8F8E9
:101EB0000190FFE7029800688068C007E8B1FFE77B
:101EC0000AF0DEF80199401A032815D3FFE70298BB
:101ED00000688068C00770B1FFE70299086E40F0A3
:101EE000100008660299486E40F001004866012023
:101EF0008DF80F0006E0FFE7DCE7FFE700208DF834
:101F00000F00FFE79DF80F0004B080BD0000000047
:101F100080B586B004900498006813F041FA002858
:101F200040F09280FFE70498006880683F21C8F283
:101F3000000108420ED0FFE70499086E40F010003F
:101F400008660499486E40F00100486601208DF84B
:101F500017007DE00498006813F0B6F90AF090F8D5
:101F6000039004980168012042F20002C4F20202C8
:101F7000914201900CD0FFE7049800684DF6007183
:101F8000CBF6FD710844B0FA80F040090190FFE7FC
:101F90000198C10746F20030C5F6020000291CBFB7
:101FA00042F20030C4F2020013F0C2F90290049829
:101FB000006842F20011C4F20201884206D1FFE734
:101FC00042F20000C4F20200009003E004980068AE
:101FD0000090FFE7009804990968884203D0FFE762
:101FE000029880BBFFE7FFE7049800680068C0071D
:101FF00040BBFFE70498006813F0D2F928B9FFE767
:102000000498006813F060F9FFE70AF039F80399C3
:10201000401A032815D3FFE7049800680068C0073A
:1020200070B9FFE70499086E40F010000866049943
:10203000486E40F00100486601208DF8170007E067
:10204000FFE7D1E7FFE7FFE700208DF81700FFE784
:102050009DF8170006B080BD80B584B00390029152
:102060000020ADF80600039820B1FFE7029802288F
:1020700001D8FFE717E00398029902394FF6FF7283
:1020800003F042FBADF80600BDF80600039A029982
:10209000114401F8020C9DF80700039A02991144BB
:1020A00001F8010CFFE704B080BD00000000000053
:1020B00080B584B00390029100208DF8070003984A
:1020C00020B1FFE70298022801D8FFE70FE003984C
:1020D00002990139FF2203F04BFB8DF807009DF8B0
:1020E0000700039A0299114401F8010CFFE704B0BC
:1020F00080BD00000000000080B544F21850C0F21E
:10210000000005F0B5FF80BD80B540F60000C5F6C3
:1021100002000122114609F09BFF80BD0000000073
:1021200080B540F60000C5F602000121002209F04A
:102130008FFF80BD0000000080B588B000208DF8C2
:102140001E00FFF7EDFF8020049000F0D9FA552023
:10215000059000F0D5FA059800F0D2FA8DF81E002F
:10216000FFF7D2FF9620069002F056FEFFF7D8FF49
:10217000049800F0C5FA059800F0C2FA059800F03E
:10218000BFFA8DF81E00FFF7BFFF069802F044FE6D
:10219000FFF7C6FF7E20B62100F022FBFFF7B4FF59
:1021A000502002F025FEFFF7BBFF049800F0A8FACC
:1021B000059800F0A5FA059800F0A2FA8DF81E0027
:1021C000FFF7A2FF069802F027FEFFF7A9FF049889
:1021D00000F096FA059800F093FA059800F090FA4E
:1021E0008DF81E00FFF790FF069802F015FE9DF88F
:1021F0001E001E2804D0FFE7FF208DF81F005CE0C2
:1022000000208DF81D00FFE79DF81D00052850DC1B
:10221000FFE7FFF785FF9DF81D0000EB400240F24D
:102220000000C2F2000003908118805C497800F041
:10223000D7FAFFF769FF9620029002F0EDFDFFF755
:102240006FFF03989DF81D1001EB4101405C40F0C9
:10225000800000F055FA5520019000F051FA0198E5
:1022600000F04EFA8DF81E00FFF74EFF029802F0C4
:10227000D3FD03999DF81E009DF81D2002EB42023C
:102280001144497888420DD0FFE79DF81D0000EB0E
:10229000400140F20000C2F20000084480788DF84E
:1022A0001F000AE0FFE79DF81D0001308DF81D00BA
:1022B000AAE700208DF81F00FFE79DF81F0008B077
:1022C00080BD00000000000080B540F60000C5F6AB
:1022D00002000821012209F0BBFE80BD00000000C1
:1022E00080B540F60000C5F602000821002209F082
:1022F000AFFE80BD0000000080B586B000200290D7
:102300008DF81600FFF7ECFF02980DF1160103910E
:1023100000F0E2F9FFF7D8FF9620049002F07CFD70
:10232000FFF7DEFF0298039900F0D6F9FFF7CCFF24
:10233000049802F071FDFFF7D3FF1420B62100F0DE
:102340004FFAFFF7C1FF502002F052FDFFF7C8FF20
:102350000298039900F0C0F9FFF7B6FF049802F065
:102360005BFDFFF7BDFF0298039900F0B5F9FFF799
:10237000ABFF049802F050FD9DF816000F2804D022
:10238000FFE7FF208DF8170053E000208DF81500BF
:10239000FFE79DF81500052847DCFFE7FFF7A0FFE2
:1023A0009DF8150000EB400240F2F010C2F2000070
:1023B00001908118805C497800F012FAFFF784FFE1
:1023C0009620009002F028FDFFF78AFF01989DF803
:1023D000151001EB4101405C0DF1160100F07CF994
:1023E000FFF772FF009802F017FD01999DF81600A3
:1023F0009DF8152002EB42021144497888420DD025
:10240000FFE79DF8150000EB400140F2F010C2F22A
:102410000000084480788DF817000AE0FFE79DF877
:10242000150001308DF81500B3E700208DF8170076
:10243000FFE79DF8170006B080BD00000000000017
:1024400080B584B00390002002900190FFF768FEF1
:10245000922000F055F9122001A90091062200F007
:1024600017F9FFF751FE9DF804009DF8051040EAAA
:102470000120039908849DF806009DF8071040EAA2
:102480000120039948849DF808009DF8091040EA4E
:1024900001200399888440F25460C0F2000090ED5E
:1024A000000A0399B1F9202001EE102AB8EEC11AF2
:1024B00020EE010A81ED010A90ED000A0399B1F9BD
:1024C000222001EE102AB8EEC11A20EE010A81ED99
:1024D000020A90ED000A0398B0F9241001EE101AD8
:1024E000B8EEC11A20EE010A80ED030AFFF718FECC
:1024F000A22000F005F900992220022200F0C8F87D
:10250000FFF702FE9DF804009DF80510C00040EAA8
:102510005110039988850398B0F92C00B0F5806FAD
:1025200006DBFFE70399888DA0F500608885FFE74B
:102530000398B0F92C1000EE101AB8EEC01AB4EEE1
:10254000002AB3EE070AA1EE020A80ED070AFFF7A0
:10255000C7FE002001A9082200F09AF8FFF7B4FE98
:102560009DF804000F2819D1FFE79DF806009DF89B
:10257000071040EA01200399C8849DF808009DF8DF
:10258000091040EA0120039908859DF80A009DF88A
:102590000B1040EA012003994885FFE740F2140040
:1025A000C2F2000090ED001A0399B1F9262000EE66
:1025B000102AB8EEC02A91ED0C0A91EE020A81EDC4
:1025C000040A90ED001A0399B1F9282000EE102AB0
:1025D000B8EEC02A91ED0D0A91EE020A81ED050ACE
:1025E00090ED001A0398B0F92A1000EE101AB8EE18
:1025F000C02A90ED0E0A91EE020A80ED060A04B0A0
:1026000080BD00000000000080B582B000208DF881
:102610000700FFE7FFF790FD01469DF8070008431C
:102620008DF80700FFF768FE01469DF80700084394
:102630008DF80700022002F0DBFBFFE79DF80700A2
:102640000028E7D1FFE740F25050C2F2000000F04E
:1026500003F802B080BD000081B0009000994EF2F6
:10266000D150C3F67830086300994FF68F40CBF60F
:1026700064304863009949F2B020C3F6C000886313
:1026800000990120087001B07047000000000000B0
:1026900080B584B08DF80F0002918DF807209DF869
:1026A0000F0040F0800000F02BF8FFE79DF80700D6
:1026B00070B1FFE7552000F023F8029908700298E6
:1026C000013002909DF8070001388DF80700EDE712
:1026D00004B080BD0000000080B582B08DF8070016
:1026E00000919DF8070040F0800000F009F85520A7
:1026F00000F006F80099087002B080BD00000000EC
:1027000080B582B08DF8070000208DF8060069467C
:102710006420086044F6CC10C0F200000DF10701FF
:102720000DF1060201230FF007F99DF8060002B033
:1027300080BD00000000000080B582B08DED010A70
:10274000DDED010A4CF6A810C2F200009FED220A4E
:1027500014F0CEFAFFE74CF6A810C2F2000090ED9C
:102760000A0A90ED151AB4EE410AF1EE10FA07DDEF
:10277000FFE74CF6A811C2F20001486D88621BE029
:102780004CF6A810C2F2000090ED0A0A90ED151A5E
:10279000B1EE411AB4EE410AF1EE10FA0BDAFFE79E
:1027A0004CF6A810C2F2000090ED150AB1EE400AF6
:1027B00080ED0A0AFFE7FFE7FFE74CF6A810C2F238
:1027C000000090ED0A0ABCEEC00A10EE100A11F0EB
:1027D000E7FD02B080BD00BF000020420000000005
:1027E00080B582B08DF807008DF806109DF80700BF
:1027F000FFF786FF9DF80600FFF782FF02B080BD5D
:1028000080B582B04DF21040C2F20000019000216C
:1028100040F2FF7203F00CF8019840F25061C0F2F0
:102820000001022204F000FB02B080BD00000000A5
:1028300080B5A8B00020069020902190022104913C
:102840002291012105912391249025904DF640007D
:10285000C2F20000029020A907F032FE069B029807
:1028600069460B6019461A4607F0B6FE0599069AA6
:10287000029807F035FD029809F01AF804990698B5
:10288000189019901A911B911C901D9044F6D80035
:10289000C0F20000039018A907F012FE049A0699EE
:1028A00003984FF080431093119112921392149158
:1028B000159110A907F004FE059A069B0398694636
:1028C0000B60114607F088FE069A0398102107F066
:1028D00007FD039808F0ECFF049A05990698089004
:1028E00009900A920B910C900D904DF6E000C2F207
:1028F0000000079008A907F0E3FD049A069B0798DB
:1029000069460B60114607F067FE0599069A07981D
:1029100007F0E6FC079808F0CBFF28B080BD000068
:10292000704700000000000080B544F6A020C0F20F
:1029300000000C2110F024F980BD00000000000010
:1029400080B586B040F23860C2F2000001900BF012
:102950000FFA01984068059041F20001C4F20101AC
:10296000086820F00100086005984BF2C532C9F2F2
:10297000A212A0FB0220000C41F20C02C4F20102E0
:102980001060086840F0010008604DF6B060C2F2C7
:10299000000022210291C0F88C1001210391C16630
:1029A00040F24021C0F2000101F580724FF48073C3
:1029B00004931AF039F9029A03994DF6D870C2F2CD
:1029C0000000C0F88C20C16640F20021C0F2000176
:1029D00001F1200212231AF027F9029A0399049BAD
:1029E00044F61440C0F20000C0F88C20C16640F2EA
:1029F0004041C0F2000101F580721AF015F906B0ED
:102A000080BD000000000000FFE7FEE700000000BE
:102A100080B544F65420C0F200000268182191628B
:102A2000026800219163042110F0AAF880BD000023
:102A300080B5AAB0299001202890FFE740F63830F1
:102A4000C0F20000B0F83B004DF25431C2F2000178
:102A5000088044F6FC50C0F2000001880020249059
:102A600059B9FFE74DF25430C2F20000018800204E
:102A70000029C8BF01202490FFE7249800F001003E
:102A800044F61C61C0F20001087044F6D800C0F2A0
:102A900000000068406C0006002810D5FFE702F037
:102AA000D3FA1420239027F077FC239840F64412A1
:102AB000C0F200020121117027F06EFCFFE74DF615
:102AC0004000C2F200000068406C0006002810D5EB
:102AD000FFE702F0CDF91420229027F05DFC229848
:102AE00040F64412C0F200020121117027F054FC9C
:102AF000FFE740F2D030C2F200000078C00728B3F0
:102B0000FFE740F29010C2F2000040F26061C0F2B4
:102B100000010222209200F0BBFE1E20219027F02F
:102B20003BFC209A40F2C010C2F2000040F200715B
:102B3000C0F2000102F0A4F8219827F02DFC40F229
:102B4000D031C2F2000100200870FFE74EF20920E8
:102B5000C2F200000078002840F0A680FFE740F2B3
:102B60009010C2F200001E9040F26061C0F20001BD
:102B70001C919FEDE52A8DED1D2AB0EE420AF0EE84
:102B8000420AB0EE421AF0EE421A00F011FD1E2089
:102B90001F9027F001FC1C991E9801221A9200F048
:102BA00077FE1F9827F0F8FB1A9A40F24470C0F2A3
:102BB00000001B9040F21C01C2F20001199100F0CC
:102BC00067FE1F9827F0E8FB19991A9A1B98403165
:102BD00000F05EFE1F9827F0DFFB19991A9A1B98E8
:102BE000803100F055FE1F9827F0D6FB19991A9AEC
:102BF0001B98C03100F04CFE1F9827F0CDFB1A9AAD
:102C00001B9840F24C11C2F2000102F039F81F98F3
:102C100027F0C2FB1C991E98022200F039FE1F9873
:102C200027F0BAFB1C999DED1D2A1E98B0EE420AB2
:102C3000F0EE420AB0EE421AF0EE421A00F0B8FC92
:102C40001F9827F0A9FB40F61C30C0F20000807AE4
:102C500078B1FFE740F24470C0F2000040F24C113E
:102C6000C2F20001022202F00BF81E2027F094FBB2
:102C7000FFE740F2C010C2F2000040F20071C0F263
:102C800000010122189201F0FBFF1E2027F084FBB7
:102C9000189840F2CE31C2F20001087040F644119B
:102CA000C0F200010870E9E040F64410C0F20000F4
:102CB000007800F0010001280AD0FFE744F61C600C
:102CC000C0F200000078C007002800F0D680FFE7BF
:102CD00040F29010C2F2000040F26061C0F20001C8
:102CE0009FED892AB0EE420AF0EE420AB0EE421A97
:102CF000F0EE421A00F05CFC1E2027F04DFB40F283
:102D0000CC30C2F200000078C007A8B1FFE740F263
:102D10009010C2F2000040F26061C0F20001022295
:102D200000F0B6FD1E2027F037FB40F2CC31C2F296
:102D3000000100200870FFE740F29010C2F200008E
:102D4000169040F26061C0F2000114919FED6E2A6E
:102D50008DED152AB0EE420AF0EE420AB0EE421AAC
:102D6000F0EE421A00F024FC1E20179027F014FB0E
:102D700040F24470C0F20000129040F21C01C2F216
:102D8000000111910022139200F082FD179827F0A4
:102D900003FB1199139A1298403100F079FD1798AE
:102DA00027F0FAFA1199139A1298803100F070FD09
:102DB000179827F0F1FA1199139A1298C03100F080
:102DC00067FD179827F0E8FA139A129840F24C1111
:102DD000C2F2000101F054FF179827F0DDFA139AB0
:102DE0001499169800F054FD179827F0D5FA149905
:102DF0009DED152A1698B0EE420AF0EE420AB0EEAA
:102E0000421AF0EE421A00F0D3FB179827F0C4FAEA
:102E100044F62860C0F200000078C00778B9FFE7E8
:102E200040F2C010C2F2000040F20071C0F2000196
:102E3000002201F025FF1E2027F0AEFAFFE740F246
:102E40009010C2F2000040F26061C0F200019FEDFC
:102E50002E2AB0EE420AF0EE420AB0EE421AF0EE2E
:102E6000421A00F0A5FB1E2027F096FA40F6441106
:102E7000C0F2000100200870FFE7FFE744F6286079
:102E8000C0F200000078C007B0B1FFE740F2C01008
:102E9000C2F2000040F20071C0F200010122109263
:102EA00001F0EEFE109840F2CE31C2F2000108703F
:102EB0001E2027F071FA1EE040F2CE30C2F2000070
:102EC0000078C007B0B1FFE740F2C010C2F20000C6
:102ED00040F20071C0F2000100220F9201F0D0FE1A
:102EE0000F9840F2CE31C2F2000108701E2027F088
:102EF00053FAFFE7FFE744F62A60C0F200000078CB
:102F0000002856D102E000BF0000000040F6A000FB
:102F1000C0F20000D0ED0B0A40F2A070C0F2000039
:102F2000D0ED001A40F24470C0F200000D9040F263
:102F30004C11C2F200011FED0C2A8DED0E2AB0EEED
:102F4000420AB0EE421A01F09FFD0D989DED0E2A47
:102F500040F27431C2F200010A91D1ED0B0A40F245
:102F6000A871C0F200010B91D1ED001A40F21C01D2
:102F7000C2F200010C91B0EE420AB0EE421A00F02B
:102F800017FB0A9B0B9A0C990D989DED0E2AD3ED19
:102F90000C0AD2ED001A4031B0EE420AB0EE421AED
:102FA00000F006FB44F62A61C0F20001012008701F
:102FB0003BE040F27430C2F200000590D0ED0D0A03
:102FC00040F2A870C0F200000690D0ED001A40F266
:102FD0001C00C2F20000079000F1800140F2447032
:102FE000C0F2000008909FEDDE2A8DED092AB0EEB8
:102FF000420AB0EE421A00F0DBFA059B069A0799E6
:1030000008989DED092AD3ED0E0AD2ED001AC031C1
:10301000B0EE420AB0EE421A00F0CAFA44F62A6153
:10302000C0F2000100200870FFE740F6A000C0F2E7
:10303000000090ED200A40F2A470C0F2000090ED74
:10304000001A40F20420C2F20000D0ED001A40F253
:103050009010C2F20000049040F26061C0F20001E2
:103060009FEDBF2AF0EE420A00F0A2FA049840F267
:103070003C41C2F2000191ED151A91ED160ABDEE28
:10308000C11A11EE101ABDEEC00A10EE102A40F659
:10309000A013C0F2000393ED150ABDEEC00A10EEB6
:1030A000103AEE464FF0000CCEF800C000F0A0FC45
:1030B00044F6A840C0F2000090ED000AB5EE400AC8
:1030C000F1EE10FA28D0FFE740F2C010C2F2000083
:1030D000039040F20071C0F2000102919FEDA02A1E
:1030E000B0EE420AF0EE420AB0EE421AF0EE421A98
:1030F00001F0CAFC012027F04FF90299039802223F
:1031000001F0BEFD1E2027F047F944F6A841C0F2A9
:1031100000010020086018E040F6A010C0F2000096
:1031200090ED160A40F2C010C2F2000040F20071A9
:10313000C0F20001B2EE041AF7EE001A9FED882AE1
:10314000F0EE420A01F0A0FCFFE74DF25430C2F26B
:103150000000008844F6FC51C0F20001088008F02D
:103160008FFF00EE100AB8EE400A8DED270A9DEDA4
:10317000270A40F2A060C0F2000090ED0A1A30EE7B
:10318000410AB2EE041AB4EE410AF1EE10FA07DD7C
:10319000FFE744F62861C0F200010120087006E054
:1031A00044F62861C0F2000100200870FFE700200B
:1031B0002690FFE72698032825DCFFE79DED270AE8
:1031C000269940F21C00C2F2000000EB811090ED45
:1031D0000F1A30EE410A9FED631AB4EE410AF1EE88
:1031E00010FA0BDDFFE7269940F21C00C2F2000046
:1031F00000EB8111072081F83500FFE7FFE72698F3
:1032000001302690D6E700202590FFE72598012879
:1032100034DCFFE79DED270A259800EB400140F2E2
:10322000A060C0F2000000EB011090ED0A1A30EE31
:10323000410A9FED4C1AB4EE410AF1EE10FA0CDD92
:10324000FFE7259800EB400140F2A060C0F20000CB
:1032500000EB0111012088850BE0259800EB40016F
:1032600040F2A060C0F2000000EB01110020888550
:10327000FFE7FFE7259801302590C7E79DED270A76
:1032800040F26060C0F2000090ED0F1A30EE410A8B
:103290009FED341AB4EE410AF1EE10FA08DDFFE7B3
:1032A00040F26061C0F20001072081F83500FFE7BD
:1032B0009DED270A40F24C10C2F2000090ED101A6A
:1032C00030EE410A9FED271AB4EE410AF1EE10FAF2
:1032D00007DDFFE740F24C11C2F2000107204876FB
:1032E000FFE79DED270A40F21C10C2F2000090EDAE
:1032F0000A1A30EE410A9FED1B1AB4EE410AF1EEB4
:1033000010FA07DDFFE740F21C11C2F200010120B4
:10331000888506E040F21C11C2F200010020888579
:10332000FFE79DED270A40F20070C0F2000090ED2B
:10333000101A30EE410A9FED0B1AB4EE410AF1EE7D
:1033400010FA07DDFFE740F20071C0F2000107202C
:103350004876FFE7012028F09BFEFFF76FBB00BF18
:10336000000000000000FA4384B08DF80F000291C5
:10337000ADF806209DF80F000146009123281DD8C6
:103380000099DFE801F012131415161B1B1B1B1B01
:103390001B1B1B1B1B1B1B1B1B1B1B1B1B1B1B1B7D
:1033A0001B1B1B1B1B1B1718191A08E007E006E064
:1033B00005E004E003E002E001E000E0FFE70020B8
:1033C00004B07047000000000020704700000000BB
:1033D00080B582B044F2CC10C0F20000009043F6F9
:1033E0000501C0F20001002201921AF089F900984B
:1033F00043F20501C0F200011AF062F9019802B02F
:1034000080BD00000000000080B584B003900291F0
:1034100003980299096813F0FBF9039944F2CC1060
:10342000C0F2000001901AF04BF901981AF0ECF884
:10343000002004B080BD000083B0029001918DF89F
:10344000032000208DF802009DF9020003B07047B0
:1034500080B586B00490ADF80E1000208DF80D00F8
:1034600044F2CC10C0F20000D0F8BC0202900298E6
:10347000D0F8140220B1FFE701208DF8170013E007
:103480000499BDF80E2044F2CC10C0F20000019067
:103490001AF036F901981AF03FFA8DF80D009DF8F0
:1034A0000D008DF81700FFE79DF8170006B080BDEE
:1034B00080B586B084460898CDF814C004918DF884
:1034C0000F2002938DF80700049840689DF80F10B4
:1034D00040EA01200599486005994FF080408860D6
:1034E00005990020C8609DF807200821052AB8BF6B
:1034F0000421059A11610599C861059988618DF8C3
:103500000600FFE79DF806009DF8071088420FDAD5
:10351000FFE702989DF80620805C0599114481F828
:103520002800FFE79DF8060001308DF80600E9E766
:1035300005981DF079FA06B080BD0000000000007B
:1035400080B584B00390029101928DF80330029807
:103550004068039948600399002088600399C86017
:10356000039A082111610399C861039988618DF854
:103570000200FFE79DF802009DF8031088420FDA71
:10358000FFE701989DF80220805C0399114481F8BF
:103590002800FFE79DF8020001308DF80200E9E7FE
:1035A00003981DF041FA04B080BD00000000000047
:1035B00080B59EB01D901C918DED1B0ACDED1A0AB1
:1035C0008DED191ACDED181A8DED172A1C9840783B
:1035D000002840F0B480FFE71C9890ED031AB1EE8C
:1035E000410A9DED1B2A80FE020A80FE410A8DEDF4
:1035F0001B0A1C9890ED041AB1EE410A9DED1A2A9F
:1036000080FE020A80FE410A8DED1A0A9DED190A1C
:103610009FED9E1A8DED071A80FE010A1C9890ED11
:10362000062A80FE420A8DED190A9DED180A80FED9
:10363000010A1C9890ED071A80FE410A8DED180AC8
:103640001C9890ED051AB1EE410A9DED172A80FEF7
:10365000020A80FE410A8DED170A9DED1B0A1C9897
:1036600090ED031AF1EE410A102026F075FBADF83B
:103670005A009DED1A0A1C9890ED041AF1EE410AC9
:103680000C20089026F068FBDDED070A014608983B
:10369000ADF858109DED190A1C9991ED061A26F007
:1036A0005BFBDDED070A01460898ADF856109DED6D
:1036B000180A1C9991ED071A26F04EFB014608984E
:1036C000ADF854109DED170A1C9991ED051AF1EE15
:1036D000410A26F041FBADF852009DF85B008DF8E1
:1036E0004A00BDF85A008DF84B00BDF8580000099B
:1036F0008DF84C00BDF858109DF8570040EA0110B5
:103700008DF84D00BDF856008DF84E00BDF8540000
:1037100000098DF84F00BDF854109DF8530040EAA1
:1037200001108DF85000BDF852008DF851001D9821
:103730001C990DF14A020823FFF702FFA2E01C9832
:10374000407801281DD1FFE7002011909DED1B0A54
:103750009FED4D1A20EE010ABDEEC00A10EE101AC0
:1037600010A8069011AA20F023FB069B1D981C9917
:103770009DF84420EC46CCF800200422FFF798FE88
:103780007FE01C98407802283CD1FFE700200F9092
:103790009DED1B0A9FED3C1A20EE010ABDEEC00A0A
:1037A00010EE101A0DA805900FAA049220F000FB4D
:1037B000049A05989DED1A0AB2EE041A8DED031ACB
:1037C00080EE010ABDEEC00A10EE101A20F0D0FA09
:1037D0009DED031A049A05989DED170A80EE010AE3
:1037E000BDEEC00A10EE101A20F0C2FA059B1D981B
:1037F0001C999DF83C20EC46CCF800200622FFF7EF
:1038000057FE3DE01C984078032819D1FFE70020BF
:103810000C909DED170ABDEEC00A10EE101A0BA811
:1038200002900CAA20F0C4FA029B1D981C999DF8E6
:103830003020EC46CCF800200122FFF739FE1EE0D4
:103840001C984078042819D1FFE700200A909DEDCC
:103850001A0ABDEEC00A10EE101A09A801900AAAB1
:1038600020F0A6FA019B1D981C999DF82820EC4693
:10387000CCF800200322FFF71BFEFFE7FFE7FFE77E
:10388000FFE7FFE71EB080BD00401C4600000000BF
:1038900080B586B0059004918DF80F20FF208DF83B
:1038A00007008DF808008DF809008DF80A008DF8E2
:1038B0000B008DF80C008DF80D009DF80F000146EF
:1038C000009140B1FFE70098012808D0FFE7009879
:1038D000022808D00BE0FC208DF80E0008E0FD2047
:1038E0008DF80E0004E0FE208DF80E0000E007E0E9
:1038F000059804990DF107020823FFF721FEFFE761
:1039000006B080BD0000000080B584B00390029135
:1039100001920398006801998968884201D0FFE705
:1039200054E002984178807840EA01200199488467
:103930000299C8780979000140EA11100199888438
:1039400002980179407901F00F0140EA01200199C4
:10395000C8840199488CD1ED030AB1EE600A1021A8
:1039600028F00EF8019880ED0A0A0199888CD1EDB3
:10397000040AB1EE600A0C21009128F001F80099C8
:10398000019880ED0B0A019AD08CD2ED050AB1EEB8
:10399000600A27F0F5FF019880ED0C0A0298807903
:1039A000019981F834000298C079019981F83500B5
:1039B00008F066FB00EE100AB8EE400A019880EDB0
:1039C0000F0A0199012081F82000FFE704B080BDB3
:1039D00080B582B0019001200090FFE727F0A0FDA4
:1039E00020F0AEFE012028F053FBF7E700000000B6
:1039F00080B584B084460698CDF80CC0ADF80A10A6
:103A0000ADF80820ADF80630ADF8040003994FF486
:103A1000007048609DF80B00039981F828009DF81C
:103A20000A00039981F829009DF80900039981F89B
:103A30002A009DF80800039981F82B009DF80700E3
:103A4000039981F82C009DF80600039981F82D0058
:103A50009DF80500039981F82E009DF80400039954
:103A600081F82F0003981CF0DFFF04B080BD000038
:103A700080B584B003908DED020AADF806100020E9
:103A800000900398007800F00100012820D0FFE7A3
:103A900003998889C8810398B0F90C1000EE101AB8
:103AA000B8EEC00ABDF8061001EE101AB8EEC11A41
:103AB0009DED022A21EE021A80EE010A9FED4C1ABA
:103AC00020EE010A80ED040A039901200870FFE747
:103AD0000399B1F90C00B1F90E10401A00EE100A6A
:103AE000B8EEC00A8DED000A9DED000ABDF8060093
:103AF00001EE100AB8EEC11AB6EE002A21EE021A43
:103B0000B4EE410AF1EE10FA1ADDFFE79DED000A6E
:103B1000BDF8060001EE100AB8EEC11A30EE410AF7
:103B20009DED022A21EE021A80EE011A039890ED13
:103B3000040A9FED2F2AA1EE020A80ED040A45E057
:103B40009DED000ABDF80600404201EE100AB8EEF5
:103B5000C11AB6EE002A21EE021AB4EE410AF1EEC5
:103B600010FA1ADAFFE79DED000ABDF8060001EE33
:103B7000100AB8EEC11A30EE010A9DED022A21EEBC
:103B8000021A80EE011A039890ED040A9FED182A9C
:103B9000A1EE020A80ED040A17E09DED000ABDF8CF
:103BA000060001EE100AB8EEC11A9DED022A21EEC0
:103BB000021A80EE011A039890ED040A9FED0C2A78
:103BC000A1EE020A80ED040AFFE7FFE7039890EDFB
:103BD000040ADFED080A9FED081A01F005FD0398BD
:103BE00080ED040A039890ED040A04B080BD00BF84
:103BF0000000B443000034C3000034430000000060
:103C000084B003908DED020AADF806100399B1F966
:103C10000C00B1F90E10401A00EE100AB8EEC00AFE
:103C20008DED000A9DED000ABDF8060001EE100AB8
:103C3000B8EEC11ABEEE082A21EE021AB4EE410A0D
:103C4000F1EE10FA0DDAFFE7BDF8060000EE100AFB
:103C5000B8EEC01A9DED000A30EE010A8DED000AA3
:103C60001FE09DED000ABDF8060001EE100AB8EE57
:103C7000C11AB6EE082A21EE021AB4EE410AF1EE9C
:103C800010FA0DDDFFE7BDF8060000EE100AB8EEF1
:103C9000C01A9DED000A30EE410A8DED000AFFE7E3
:103CA000FFE7BDF8060000EE100AB8EEC00A9DED71
:103CB000021A20EE010AB7EEC01A9FED0F0B80EE3C
:103CC000011B9DED000AB7EEC00A20EE010BB7EE16
:103CD000C00B8DED000A9DED001A039890ED050ACA
:103CE00030EE010A80ED050A039890ED050A04B054
:103CF000704700BF00BF00BF44174154FB2119406B
:103D000080B58CB00B900A9109920B9800680999C4
:103D10008968884201D0FFE7CAE00999088B488387
:103D20000A988079099981F824000A9801784078E6
:103D300040EA0120099908830A988178C07840EA0E
:103D40000120099908820A980179407940EA012006
:103D50000999C88108F094F900EE100AB8EE400AFB
:103D6000099880ED0A0A099800780146089103280D
:103D700000F29D800899DFE801F002284E7409984E
:103D80000C30B7EE000A8DED070A4FF40051069192
:103D9000FFF76EFE0699B0EE401A9DED070A0998EE
:103DA00080ED071A09980C30FFF72AFFB0EE401A91
:103DB0009DED070A099880ED081A09980C3000F06B
:103DC0007FF8099880ED050A72E009980C309FEDA4
:103DD0003A0A8DED050A4FF400510491FFF748FEB1
:103DE0000499B0EE401A9DED050A099880ED071A76
:103DF00009980C30FFF704FFB0EE401A9DED050A5C
:103E0000099880ED081A09980C3000F059F80998C3
:103E100080ED050A4CE009980C30B7EE000A8DEDF4
:103E2000030A4FF400510291FFF722FE0299B0EE0F
:103E3000401A9DED030A099880ED071A09980C3085
:103E4000FFF7DEFEB0EE401A9DED030A099880ED03
:103E5000081A09980C3000F033F8099880ED050A2B
:103E600026E009980C309FED130A8DED010A4FF4FE
:103E700000510091FFF7FCFD0099B0EE401A9DED56
:103E8000010A099880ED071A09980C30FFF7B8FE6F
:103E9000B0EE401A9DED010A099880ED081A0998C4
:103EA0000C3000F00DF8099880ED050A00E0FFE7FE
:103EB0000CB080BD000010422CA099410000000011
:103EC00082B001908DED000A0198B0F9041049000C
:103ED00000EE101AB8EEC00B9FED0B1B20EE010B8D
:103EE0009DED001A9FED0A2A21EE021AB7EEC11AC3
:103EF00080EE010BB7EEC00B80ED020A019890ED49
:103F0000020A02B0704700BF44174154FB21094028
:103F1000000070420000000080B54DF2F840C2F28F
:103F2000000004F0A5F880BD80B544F29050C0F2C6
:103F3000000004F09DF880BD80B54DF27050C2F2D3
:103F4000000004F095F880BD80B54DF2E850C2F253
:103F5000000004F08DF880BD80B544F28060C0F2AE
:103F6000000004F085F880BD80B54DF2D860C2F243
:103F7000000004F07DF880BD80B544F27070C0F29E
:103F8000000004F075F880BD80B54DF25070C2F2AB
:103F9000000004F06DF880BD80B544F2E870C0F216
:103FA000000004F065F880BD80B54DF2C870C2F223
:103FB000000004F05DF880BD80B544F66000C0F2FA
:103FC000000004F055F880BD80B544F20860C0F2EE
:103FD000000004F04DF880BD80B54DF26060C2F283
:103FE000000004F045F880BD80B544F2F860C0F2EE
:103FF000000004F03DF880BD80B54DF28040C2F273
:10400000000004F035F880BD83B00290029801688A
:1040100001201022C4F202029142009000F0A3801D
:10402000FFE70298016801202822C4F202029142AF
:10403000009000F09880FFE702980168012040227C
:10404000C4F202029142009000F08D80FFE70298D6
:10405000016801205822C4F202029142009000F04F
:104060008280FFE70298016801207022C4F20202F8
:104070009142009077D0FFE70298016801208822E2
:10408000C4F20202914200906DD0FFE702980168ED
:104090000120A022C4F202029142009063D0FFE707
:1040A000029801680120B822C4F2020291420090F5
:1040B00059D0FFE702980168012040F21042C4F293
:1040C0000202914200904ED0FFE702980168012061
:1040D00040F22842C4F202029142009043D0FFE72E
:1040E00002980168012040F24042C4F2020291426B
:1040F000009038D0FFE702980168012040F2584252
:10410000C4F20202914200902DD0FFE702980168AC
:10411000012040F27042C4F202029142009022D08B
:10412000FFE702980168012040F28842C4F20202CF
:104130009142009017D0FFE702980168012040F2F9
:10414000A042C4F20202914200900CD0FFE7029814
:1041500000684FF64831CBF6FD710844B0FA80F0A4
:1041600040090090FFE70098C00740B3FFE70298BE
:10417000007810384AF6AB21CAF6AA21A0FB01103C
:1041800000090190019800F007014FF2E870C0F6B5
:104190000200405C0299C8650198042807D3FFE734
:1041A00002990868042262F30900886506E0029912
:1041B000086840F2FF3290438865FFE705E0029906
:1041C000086820F0FF008865FFE70298806D03B063
:1041D000704700000000000084B00390039800685E
:1041E000019003980168012045F20842C5F60202D9
:1041F000914200904ED0FFE703980168012045F2FC
:104200001C42C5F602029142009043D0FFE703989A
:104210000168012045F23042C5F602029142009049
:1042200038D0FFE703980168012045F24442C5F603
:104230000202914200902DD0FFE70398016801200F
:1042400045F25842C5F602029142009022D0FFE7A3
:1042500003980168012045F26C42C5F602029142C2
:10426000009017D0FFE703980168012045F28042D3
:10427000C5F60202914200900CD0FFE70398006857
:104280004AF66C31CAF2FD710844B0FA80F0400978
:104290000090FFE70098C00710B3FFE7039800788D
:1042A00008384CF6CD41CCF6CC41A0FB01100009FA
:1042B0000290029945F60000C5F6020000EB81006D
:1042C00003990866039945F68000C5F60200486622
:1042D000029800F01F01012088400399886635E0AC
:1042E0000398007810384AF6AB21CAF6AA21A0FB41
:1042F000011000090290019840F2B841C4F2020195
:1043000088420CD8FFE7019840F21041C4F2020144
:10431000884204D3FFE7029808300290FFE7029931
:1043200040F60000C4F2020000EB81000399086629
:10433000039940F68000C4F202004866029800F03B
:104340001F010120884003998866FFE704B0704789
:1043500083B002900298007901900198002800F043
:104360008A80FFE70198082800F28580FFE702981D
:104370000168012045F20842C5F602029142009010
:104380004ED0FFE702980168012045F21C42C5F6B5
:1043900002029142009043D0FFE702980168012099
:1043A00045F23042C5F602029142009038D0FFE754
:1043B00002980168012045F24442C5F6020291428A
:1043C00000902DD0FFE702980168012045F2584285
:1043D000C5F602029142009022D0FFE702980168E0
:1043E000012045F26C42C5F602029142009017D0BE
:1043F000FFE702980168012045F28042C5F60202FB
:10440000914200900CD0FFE7029800684AF66C31A8
:10441000CAF2FD710844B0FA80F040090090FFE74D
:104420000098C00780B1FFE7019945F6FC00C5F68A
:10443000020000EB81000299C866029945F640101F
:10444000C5F6020008670FE0019940F6FC00C4F2CF
:10445000020000EB81000299C866029940F6401004
:10446000C4F202000867FFE70198411E012088405E
:1044700002994867FFE703B07047000000000000A2
:1044800085B0049000208DF80F000498806918BB57
:10449000FFE70498806A029003281BD80299DFE89E
:1044A00001F0020D0218049890F82F00C00720B107
:1044B000FFE701208DF80F00FFE70CE00498C06AC9
:1044C000B0F1C07F04D1FFE701208DF80F00FFE7B6
:1044D00001E000E0FFE747E004988069B0F5005F85
:1044E00026D1FFE70498806A019003281ED801991D
:1044F000DFE801F00206021101208DF80F0016E03E
:10450000049890F82F00C00720B1FFE701208DF834
:104510000F00FFE70BE00498C06AB0F1C07F04D140
:10452000FFE701208DF80F00FFE700E0FFE71AE04A
:104530000498806A0090032804D3FFE700980328BA
:1045400004D00EE001208DF80F000BE0049890F8E5
:104550002F00C00720B1FFE701208DF80F00FFE713
:1045600000E0FFE7FFE7FFE79DF80F0005B07047A9
:1045700089B008900791069205930898806D049081
:104580000898806D03900898016801201022C4F2F9
:1045900002029142029000F00381FFE7089801684F
:1045A00001202822C4F202029142029000F0F88019
:1045B000FFE70898016801204022C4F202029142FC
:1045C000029000F0ED80FFE7089801680120582272
:1045D000C4F202029142029000F0E280FFE70898E4
:1045E000016801207022C4F202029142029000F0A0
:1045F000D780FFE70898016801208822C4F20202F0
:104600009142029000F0CC80FFE7089801680120F9
:10461000A022C4F202029142029000F0C180FFE7A2
:10462000089801680120B822C4F202029142029067
:1046300000F0B680FFE708980168012040F21042C0
:10464000C4F202029142029000F0AA80FFE70898AB
:104650000168012040F22842C4F202029142029015
:1046600000F09E80FFE708980168012040F2404278
:10467000C4F202029142029000F09280FFE7089893
:104680000168012040F25842C4F2020291420290B5
:1046900000F08680FFE708980168012040F2704230
:1046A000C4F20202914202907AD0FFE708980168B2
:1046B000012040F28842C4F20202914202906FD07F
:1046C000FFE708980168012040F2A042C4F202020C
:1046D0009142029064D0FFE708980168012040F2FF
:1046E000B842C4F202029142029059D0FFE7089802
:1046F0000168012045F20842C5F60202914202908B
:104700004ED0FFE708980168012045F21C42C5F62B
:1047100002029142029043D0FFE70898016801200D
:1047200045F23042C5F602029142029038D0FFE7CE
:1047300008980168012045F24442C5F60202914200
:1047400002902DD0FFE708980168012045F25842F9
:10475000C5F602029142029022D0FFE70898016854
:10476000012045F26C42C5F602029142029017D038
:10477000FFE708980168012045F28042C5F6020271
:10478000914202900CD0FFE7089800684AF66C311D
:10479000CAF2FD710844B0FA80F040090290FFE7C8
:1047A0000298C00770B1FFE70898416E806E4860BC
:1047B0000898C06E28B1FFE70898016F406F486005
:1047C000FFE7FFE70898016801201022C4F2020207
:1047D0009142019000F0A380FFE708980168012052
:1047E0002822C4F202029142019000F09880FFE773
:1047F0000898016801204022C4F20202914201900F
:1048000000F08D80FFE70898016801205822C4F26B
:1048100002029142019000F08280FFE7089801684F
:1048200001207022C4F202029142019077D0FFE78A
:104830000898016801208822C4F202029142019086
:104840006DD0FFE7089801680120A022C4F202029F
:104850009142019063D0FFE7089801680120B822D7
:10486000C4F202029142019059D0FFE70898016812
:10487000012040F21042C4F20202914201904ED057
:10488000FFE708980168012040F22842C4F20202C2
:104890009142019043D0FFE708980168012040F25F
:1048A0004042C4F202029142019038D0FFE70898DA
:1048B0000168012040F25842C4F202029142019084
:1048C0002DD0FFE708980168012040F27042C4F241
:1048D00002029142019022D0FFE70898016801206E
:1048E00040F28842C4F202029142019017D0FFE7E1
:1048F00008980168012040F2A042C4F202029142ED
:1049000001900CD0FFE7089800684FF64831CBF6CD
:10491000FD710844B0FA80F040090190FFE701986A
:10492000C00750B3FFE70898C06D00F01F013F209B
:1049300088400499886008980168086820F48020FD
:1049400008600598089909684860089880684028B8
:1049500009D1FFE7069808990968886007980899BF
:104960000968C86008E0079808990968886006988F
:1049700008990968C860FFE782E00898016801208B
:1049800045F20842C5F60202914200904ED0FFE780
:1049900008980168012045F21C42C5F602029142C6
:1049A000009043D0FFE708980168012045F23042AB
:1049B000C5F602029142009038D0FFE708980168DE
:1049C000012045F24442C5F60202914200902DD0EA
:1049D000FFE708980168012045F25842C5F6020237
:1049E0009142009022D0FFE708980168012045F22B
:1049F0006C42C5F602029142009017D0FFE708987A
:104A00000168012045F28042C5F602029142009001
:104A10000CD0FFE7089800684AF66C31CAF2FD71C5
:104A20000844B0FA80F040090090FFE70098C00702
:104A300020B3FFE70898C06D00F01F0101208840F7
:104A40000399486005980899096848600898806843
:104A5000402809D1FFE706980899096888600798F7
:104A600008990968C86008E007980899096888608B
:104A7000069808990968C860FFE700E0FFE7FFE7CC
:104A800009B070470000000080B590B00F900E9103
:104A90008DED0D0ACDED0C0A8DED0B1ACDED0A1A38
:104AA0008DED092A0E984078002877D1FFE79DED1B
:104AB0000D0A0E9890ED031AF1EE410A102025F030
:104AC00077F9ADF822009DED0C0A0E9890ED041ACE
:104AD000F1EE410A0C20029025F06AF90146029895
:104AE000ADF820109DED090A0E9991ED051AF1EE31
:104AF000410A25F05DF901460298ADF81E109DEDC2
:104B00000B0ADFED5D0ACDED010A9FED5C1A25F081
:104B10004FF9DDED010A01460298ADF81C109DED3C
:104B20000A0AB1EE041A25F043F9ADF81A000E98FE
:104B300040680F9948609DF823000F9981F828007C
:104B40009DF822000F9981F82900BDF82000000986
:104B50000F9981F82A00BDF820109DF81D0040EA49
:104B600001100F9981F82B009DF81C000F9981F816
:104B70002C00BDF81A0000090F9981F82D00BDF82E
:104B80001A109DF81F0040EA01100F9981F82E00BD
:104B90009DF81E000F9981F82F0068E00E9840786C
:104BA000012833D1FFE70DA805900CA804900E98BA
:104BB000406800F580700F994860059800780F995B
:104BC00081F82800059840780F9981F82900059808
:104BD00080780F9981F82A000598C0780F9981F89C
:104BE0002B00049800780F9981F82C0004984078E5
:104BF0000F9981F82D00049880780F9981F82E0084
:104C00000498C0780F9981F82F002FE00E98407813
:104C100002282AD1FFE70CA803900E98406800F5FF
:104C200000700F994860039800780F9981F8280068
:104C3000039840780F9981F82900039880780F999C
:104C400081F82A000398C0780F9981F82B000F99FA
:104C5000002081F82C000F9981F82D000F9981F820
:104C60002E000F9981F82F00FFE7FFE7FFE70F986D
:104C70001BF0DAFE10B080BD000000000000FA4317
:104C800080B584B0039002918DF8072002984068A7
:104C9000039948600399FF2081F82800039981F85F
:104CA0002900039981F82A00039981F82B000399C0
:104CB00081F82C00039981F82D00039981F82E00CA
:104CC0009DF807000146009140B1FFE700980128D8
:104CD00009D0FFE7009802280AD00EE00399FC20D3
:104CE00081F82F000AE00399FD2081F82F0005E0EC
:104CF0000399FE2081F82F0000E0FFE703981BF0E6
:104D000093FE04B080BD000080B584B00390029192
:104D100001920398006801998968884201D0FFE7F1
:104D200060E00199086A48620298007800090199D8
:104D3000487602984178807840EA012001994883BA
:104D40000299C8780979000140EA11100199888315
:104D500002980179407901F00F0140EA01200199A0
:104D6000C8830199C88BD1ED050AB1EE600A0C2108
:104D7000009126F031FE019880ED0B0A0199488BD5
:104D8000D1ED030AB1EE600A102126F025FE00994C
:104D9000019880ED080A019A908BD2ED040AB1EED9
:104DA000600A26F019FE019880ED0A0A02988079BF
:104DB00000EE100AB8EE400A019880ED0C0A029845
:104DC000C07900EE100AB8EE400A019880ED0D0A95
:104DD00007F056F900EE100AB8EE400A019880ED8F
:104DE000100AFFE704B080BD70470000000000001B
:104DF00080B582B0019007F043F90090FFE707F01B
:104E00003FF90099401A0199884201D2FFE7F6E77D
:104E100002B080BD0000000080B582B001900FF0AC
:104E2000A3FA0090FFE70FF09FFA0099401A01994A
:104E3000884201D2FFE7F6E702B080BD0000000023
:104E400081B0EFF3108072B60090FFE7FEE700003C
:104E500080B54DF64000C2F2000005F019FE80BD9D
:104E600080B54DF64000C2F2000005F011FE80BD95
:104E700080B58AB04DF64000C2F20000019005F006
:104E8000DBFB01984AF20001C4F2000101604FF41B
:104E9000407181600022C2600121017442748174FA
:104EA0000523436183614FF00E0CC0F81CC0036200
:104EB00041628362C0F82CC0036340F25533436300
:104EC0008163C16302640421416408238364C16473
:104ED000026541658265C26503664266816606F0C9
:104EE000CBF818B1FFE7FFF7ABFFFFE70020029018
:104EF0000390022104910591069007904DF6400021
:104F0000C2F2000002A905F0DBFA18B1FFE7FFF7D3
:104F100097FFFFE74FF080400290002003900221AE
:104F200004910591069007904DF64000C2F20000F2
:104F300002A905F0C5FA18B1FFE7FFF781FFFFE707
:104F40006846002303604DF64000C2F200000122D3
:104F5000114605F041FB18B1FFE7FFF771FFFFE7CE
:104F60004DF64000C2F200001021002205F0B8F911
:104F700018B1FFE7FFF764FFFFE74DF64000C2F20C
:104F8000000006F095FC18B1FFE7FFF759FFFFE7B7
:104F90000AB080BD0000000080B584B0039002918B
:104FA00003980068019001980090022812D0FFE752
:104FB000009840F20121884215D0FFE7009840F2A6
:104FC0000221884218D0FFE7009840F2032188426E
:104FD0001DD025E0029940F26062C0F2000201A8F3
:104FE000FEF792FC1DE0029940F2A062C0F20002BE
:104FF00001A8FEF785FE14E0029940F2A060C0F21D
:10500000000000F1300201A8FEF77AFE09E00299E3
:1050100040F21C12C2F2000201A8FEF771FE00E08D
:10502000FFE704B080BD000080B544F6D800C0F2B0
:10503000000005F02DFD80BD80B544F6D800C0F21B
:10504000000005F025FD80BD80B58AB044F6D8008B
:10505000C0F20000019005F0EFFA01984AF2004119
:10506000C4F2000101604FF4407181600022C2600F
:1050700001210174427481740523436183614FF0FF
:105080000E0CC0F81CC0036241628362C0F82CC0E1
:10509000036340F2553343638163C16302640421B7
:1050A000416408238364C164026541658265C26509
:1050B00003664266816605F0DFFF18B1FFE7FFF780
:1050C000BFFEFFE7002002900390022104910591AA
:1050D0000690079044F6D800C0F2000002A905F03F
:1050E000EFF918B1FFE7FFF7ABFEFFE74FF08040A5
:1050F00002900020039002210491059106900790F0
:1051000044F6D800C0F2000002A905F0D9F918B1A0
:10511000FFE7FFF795FEFFE768460023036044F6CC
:10512000D800C0F200000122114605F055FA18B16E
:10513000FFE7FFF785FEFFE744F6D800C0F2000066
:105140001021002205F0CCF818B1FFE7FFF778FE38
:10515000FFE744F6D800C0F2000006F0A9FB18B142
:10516000FFE7FFF76DFEFFE70AB080BD000000001B
:1051700080B584B003900291039800680190019873
:105180000090112810D0FFE70098792815D0FFE78C
:1051900000987A281AD0FFE700987B2821D0FFE7F3
:1051A00000987E2828D032E0029940F24C12C2F2D8
:1051B000000201A8FFF7A8FD2AE0029940F21C02B4
:1051C000C2F2000201A8FEF79FFB21E0029940F223
:1051D0001C00C2F2000000F1400201A8FEF794FB9F
:1051E00016E0029940F21C00C2F2000000F18002B9
:1051F00001A8FEF789FB0BE0029940F21C00C2F205
:10520000000000F1C00201A8FEF77EFB00E0FFE70E
:1052100004B080BD0000000080B54DF6E000C2F291
:10522000000005F035FC80BD80B54DF6E000C2F20F
:10523000000005F02DFC80BD80B584B00390029184
:105240000398006801900198192809D1FFE7029995
:1052500040F20072C0F2000201A8FFF755FDFFE71F
:1052600004B080BD0000000084B002900298406B42
:10527000009002980068D0F884004FF6FC718843D3
:10528000009940EA810002990968C1F884000298F7
:105290000068D0F8840020F47F00029A1168926BB5
:1052A00040EA0240C1F884000298816B00980844EB
:1052B000009002980068D0F888006FF38F00009982
:1052C00040EA810002990968C1F8880002980068E4
:1052D000D0F8880020F4FE00029A1168D26B40EAF0
:1052E0000240C1F888000298C16B009800EB4100B1
:1052F000009002980068D0F8A0006FF38F0000992A
:1053000040EA810002990968C1F8A000029800688B
:10531000D0F8A00020F4FE00029A1168126C40EA56
:105320000240C1F8A0000299086C496C009A00FB89
:105330000120009002980068D0F8B0006FF38F0051
:10534000009940EA810002990968C1F8B00002980A
:105350000068D0F8B00020F4FE00029A1168926C48
:1053600040EA0240C1F8B0000299886CC96C009A0A
:1053700000FB0120009002980068D0F8AC006FF3A9
:105380008F00009940EA810002990968C1F8AC00D9
:105390000299086D496D009A00FB01200090029867
:1053A0000068D0F8F0006FF38F00009940EA8100A8
:1053B00002990968C1F8F00002980068D0F8F0007E
:1053C00020F47C10029A1168926D40EA0240C1F804
:1053D000F0000298816D009800EB41000090029867
:1053E0000068D0F8C0006FF38F00009940EA810098
:1053F00002990968C1F8C00002980068D0F8C0009E
:1054000020F47C10029A1168D26D40EA0240C1F883
:10541000C00002980068D0F8C00020F07C50029ACA
:105420001168126E40EA0260C1F8C00002994A6B2E
:105430004AF60040C4F2000000EB8200C866029900
:105440008A6BC86E00EB820008670299CA6B086F0E
:1054500000EBC200486702990A6C4B6C486F5A43D4
:1054600000EB8200886702998A6CCB6C886F5A4384
:1054700000EB8200C86702990A6D4B6DC86F5A43F2
:1054800000EB8200C1F8800002998A6DD1F880009B
:1054900000EBC200C1F884000299CA6D8B6ED1F88E
:1054A00084005A4300EB8200C1F8880002990A6E1A
:1054B0008B6ED1F888005A4300EB8200C1F890004F
:1054C0000298D0F890004DF2FD31C4F200018842FC
:1054D0000FD3FFE70299D1F89C0040F02000C1F8FB
:1054E0009C000299032081F8980001208DF80F009C
:1054F00017E00298C06E0190FFE701980299D1F879
:105500009010884208D2FFE7019900200860FFE769
:10551000019804300190F0E7FFE700208DF80F00BC
:10552000FFE79DF80F0004B0704700000000000086
:1055300088B007900691059204930698406848B990
:10554000FFE70698016882680069104340EA8140DD
:10555000039009E0069801688268006910430843D7
:1055600040F080400390FFE70698D0F820C0C16863
:1055700042698369C06940EA0C601843104340EAFD
:10558000014002900798826ED0F88400049951433C
:1055900000EB8100019003980199086001980430A4
:1055A0000190029801990860019804300190002050
:1055B0000090FFE700980699CA684FF2D871C0F6CC
:1055C0000201895C88420DD2FFE705980099405896
:1055D00001990860019804300190FFE700980430B9
:1055E0000090E7E708B0704785B08DED030ACDED78
:1055F000020A8DED011A9DED010A9DED021AB4EE2D
:10560000410AF1EE10FA03DAFFE70398049049E04B
:105610009DED010A9DED021A30EE410A8DED000A62
:105620009DED030A9DED011AB4EE410AF1EE10FA68
:1056300015DDFFE7FFE79DED001A9DED030A30EE53
:10564000410A8DED030AFFE79DED030A9DED011A66
:10565000B4EE410AF1EE10FAEDDCFFE71FE09DED3C
:10566000030A9DED021AB4EE410AF1EE10FA15DAC2
:10567000FFE7FFE79DED001A9DED030A30EE010AFA
:105680008DED030AFFE79DED030A9DED021AB4EECE
:10569000410AF1EE10FAEDDBFFE7FFE7FFE70398C1
:1056A0000490FFE79DED040A05B07047000000007C
:1056B00084B08DED030A9DED030AB6EE001A20EECC
:1056C000010A8DED020A039801900198009000995B
:1056D00045F68620C5F63770A0EB61000090009873
:1056E00001909DED011A9DED020A20EE012ABFEE08
:1056F000080AA2EE010A20EE410A8DED010A9DED95
:10570000010A04B07047000084B002900191ADF826
:105710000220029828B9FFE74FF6FF70ADF80E009F
:1057200021E0FFE70198411E0191B8B1FFE702981F
:10573000411C029100788DF80100BDF802109DF81F
:1057400001004840C2B24FF60820C0F6020030F80F
:10575000120080EA1120ADF80200E3E7BDF8020074
:10576000ADF80E00FFE7BDF80E0004B07047000072
:1057700083B0029001918DF80320FFE70198411E4C
:10578000019198B1FFE79DF8030002994A1C02922B
:10579000097848408DF802009DF802104FF2B86079
:1057A000C0F60200405C8DF80300E7E79DF80300B7
:1057B00003B070470000000080B584B04EF60000D2
:1057C000C1F6F170006803904EF60400C1F6F17066
:1057D000006802904EF60800C1F6F1700068019072
:1057E0000199039808440390039888B1FFE7039850
:1057F00040F25031C2F200010091023108220FF054
:105800001BF800990298123104220FF015F8FFE7F7
:1058100004B080BD0000000080B582B0019001207E
:105820000090FFE71FF01CFF012026F031FCF9E794
:1058300080B586B004900391029200200090FFE7AB
:10584000049890F85C00012804D1FFE702208DF84D
:1058500017005BE00499012081F85C00FFE7FFE797
:105860000498FCF7F1FA8DF807009DF80700E0BBFB
:10587000FFE70498006E40F0020020F4885004997D
:105880000866049800680399029A0FF055FFFFE735
:10589000049800680FF06CFDF0B1FFE7009801304C
:1058A000009000984FF60001C2F2C351884212D313
:1058B000FFE70498006E40F0100020F00200049909
:1058C0000866FFE70499002081F85C00FFE70120EB
:1058D0008DF817001AE0DBE70498006E40F0010035
:1058E00020F002000499086605E00499086E40F073
:1058F00010000866FFE7FFE70499002081F85C00CC
:10590000FFE79DF807008DF81700FFE79DF81700E7
:1059100006B080BD0000000080B5AAB02890279195
:1059200000208DF89B002798006808B1FFE7FFE78B
:10593000FFE7289890F85C00012804D1FFE70220D7
:105940008DF8A7002DE12899012081F85C00FFE780
:10595000FFE70020219022902898006842F2000181
:10596000C4F20201884206D1FFE742F20010C4F2FD
:105970000200099002E000200990FFE7099878B939
:10598000FFE72899086E40F020000866FFE7289995
:10599000002081F85C00FFE701208DF8A70000E1FE
:1059A00009980FF01DFD0890289800680FF018FD69
:1059B000002840F0E280FFE70898002840F0DD80F2
:1059C000FFE728980168012042F20002C4F20202B7
:1059D000914207900CD0FFE7289800684DF60071BF
:1059E000CBF6FD710844B0FA80F040090790FFE75C
:1059F0000798C10746F20030C5F6020000291CBF17
:105A000042F20030C4F20200259027980068002876
:105A10005ED0FFE72598806820F4404027994968C8
:105A200008432599886028980168012042F2000205
:105A3000C4F20202914206900CD0FFE72898006859
:105A40004DF60071CBF6FD710844B0FA80F04009C4
:105A50000690FFE70698C10746F20030C5F602003F
:105A600000291CBF42F20030C4F2020042F20031B1
:105A7000C4F20201884212D1FFE742F20000C4F2F0
:105A800002000FF095FC049042F20010C4F20200F4
:105A90000FF08EFC014604980843059007E046F29B
:105AA0000000C5F602000FF083FC0590FFE70598A3
:105AB00068B9FFE72598806840F61F718843279AE8
:105AC000116892681143084325998860FFE753E005
:105AD0002599886820F44040886028980168012052
